:020000040800F2
:1000000010400020E10100085D500008DD380008C4
:10001000D54F0008CD170008F95700080000000070
:10002000000000000000000000000000490100087E
:10003000FF170008000000008D010008455100086E
:10004000FB010008FB010008FB010008FB010008A0
:10005000FB010008FB010008FB010008FB01000890
:10006000FB010008FB010008FB010008FB01000880
:10007000FB010008FB010008FB010008FB01000870
:10008000FB010008FB010008FB010008FB01000860
:10009000FB010008FB010008FB010008FB01000850
:1000A000FB010008FB010008FB010008FB01000840
:1000B000FB010008FB010008FB010008FB01000830
:1000C000FB010008FB010008FB010008FB01000820
:1000D000FB010008D9560008E5560008FB0100089E
:1000E000FB010008FB010008FB010008FB01000800
:1000F000FB010008FB010008FB010008FB010008F0
:10010000FB010008FB010008FB010008FB010008DF
:10011000FB010008FB010008ED510008FB0100088D
:10012000FB010008FB010008FB010008FB010008BF
:10013000DFF810D000F014FE00480047818F00085F
:10014000AFF3008010400020224B19680868B0E827
:10015000F00F80F30988BFF36F8F4FF0000080F33A
:1001600011884EF00D0E7047000000000648006830
:10017000006880F3088862B661B6BFF34F8FBFF3A3
:100180006F8F00DF00BF00BF08ED00E0EFF30980D4
:10019000BFF36F8F0F4B1A6820E9F00F106008B59E
:1001A0004FF0500080F31188BFF34F8FBFF36F8F74
:1001B0000AF03EFE4FF0000080F31188BDE80840D1
:1001C00019680868B0E8F00F80F30988BFF36F8FF3
:1001D000704700BF34000020EFF305807047000037
:1001E0000648804706480047FEE7FEE7FEE7FEE7D1
:1001F000FEE7FEE7FEE7FEE7FEE7FEE7EB5100085D
:10020000310100082DE9F0410024061B254671F15B
:10021000000605DA01240027D0EB070067EB010197
:10022000161E73F1000605DA0027D2EB070201253E
:1002300067EB030300F010FC86460E4617469C460B
:10024000AC4204D00025D0EB050E65EB010624B1CD
:100250000020D2EB000760EB030C704631463A46B3
:100260006346BDE8F081202A04DB203A21FA02F03F
:100270000021704721FA02F3D040C2F120029140E0
:1002800008431946704740EA01039B0703D009E081
:1002900008C9121F08C0042AFAD203E011F8013B72
:1002A00000F8013B521EF9D27047D2B201E000F8CB
:1002B000012B491EFBD270470022F6E710B513460A
:1002C0000A4604461946FFF7F0FF204610BD30B538
:1002D00005462A460B4612F8010B13F8014B08B1EC
:1002E000A042F8D01CB1002802D06D1CF1E72846CE
:1002F00030BD421C10F8011B0029FBD1801A704749
:1003000010B5002200E0521C835C8C5CA34201D13A
:10031000002BF8D1D8B2E1B2401A10BD30B5044676
:100320000020034600E05B1C934203D2E05CCD5CFE
:10033000401BF8D030BD30B505460020034600E034
:100340005B1C934205D2EC5CC85C201A01D1002CE6
:10035000F6D130BD70B50F4D00B92868002412E009
:100360000A4602E09E4203D0521C1378002BF9D1BA
:10037000DAB2224305D02BB124B1002100F8011BD1
:1003800004E00446401C0678002EE9D1286020468F
:1003900070BD00008801002070B5064605F0BCFA6B
:1003A000046805460A220021304600F0F5FB2C6067
:1003B00070BDF0B480EA0102D40F4200B2EB410FED
:1003C00002D20246084611464A0042D0C30DDDB2B1
:1003D000C1F3C752AD1A202D35DAC1F3160141F42D
:1003E000000204B15242C5F1200602FA06F12A4188
:1003F0001044B3EBD05F23D0C4B1012DA0EBC350A8
:1004000009DCF0BC4FF0004202EAC352DBB200F557
:10041000000000F002BC400000F1807000EBC3500F
:10042000A0F1807040EAD170490009E0490841EA32
:10043000C071A0EBC35000F50000400800EBC350B2
:10044000F0BC00F0E1BB6142012202EB4101001B64
:10045000F6E7F0BC704781F00041AAE780F0004069
:10046000A7E780EA010210B502F00043400022D065
:100470004A001FD0010E01EB1261C0F35600C2F317
:10048000560240F4000042F40002A0FB02200004E7
:100490007F39140400D0401C50EA124001D44000BF
:1004A000491EC2B20C0604EBD010401C4008802A42
:1004B00002D003E0002010BD20F00100002900DA86
:1004C0000020184310BD30B480EA010202F000455C
:1004D00030F0004221F0004013D090B1C30DD40D94
:1004E000C2F31601C0F31600E41A41F4000140F40F
:1004F00000027D34914201D3641C00E04900002CCD
:1005000002DA30BC002070474FF400000023914213
:1005100001D3891A034340084FEA4101F7D151B191
:10052000914202D14FF0004105E002D24FF00101AB
:1005300001E06FF0010103EBC450284430BC00F02F
:1005400063BB420005D0C0F3C7525242914201DC66
:100550000020704700EBC15070472DE9FE4F8046E8
:1005600081EA0300C00F0C46009021F0004123F007
:100570000045B8EB0200A94105D24046214690460D
:100580001C460B46024623F00040104347D0270D7F
:10059000C7F30A00C3F30A510290401A01904028A1
:1005A0006BDAC3F3130040F4801B0098924620B12D
:1005B0000023D2EB030A63EB0B0B01985946C0F101
:1005C0004002504600F079FA06460D46504659461C
:1005D000019A00F081FA10EB08006141002487EADB
:1005E000115284EAE7731A4340D0009A62B3019A29
:1005F000012A4FEA075215DC001B61EB02014FF0A4
:10060000004202EA0752CDE90042001C41F5801188
:1006100032462B4600F03EFB03B0BDE8F08F40466B
:100620002146F9E7001B61EB0201001C41F5801334
:1006300000185B412018A2F5001747EB030140EAC0
:10064000D570B6196D4111E06D084FEA360645EADE
:10065000C0754FEA0752001B61EB0201001C41F517
:10066000801149084FEA30000019514132462B46AB
:1006700003B0BDE8F04F00F0FEBA00980122400040
:100680000023D0EB020263EBE073009821464FEAAF
:10069000E074B8EB000061EB0401E9E783F000438C
:1006A0005BE781F0004158E72DE9FE4F81EA030442
:1006B00004F0004421F0004100944FF0000B23F0BF
:1006C000004350EA01045ED052EA03045BD0C3F356
:1006D0000A54C1F30A552C44A4F2F3340194A0FB4C
:1006E0000254C1F3130141F48011C3F3130343F423
:1006F000801301FB024400FB034E840A970A44EA7C
:10070000815447EA8357A4FB076802958D0A05FBCD
:1007100007854FEA932C04FB0C542705029D4FEAF2
:10072000065847EA1637B5EB08056EEB070C870E3F
:10073000920E47EA811742EA8312A7FB0201B6EB49
:100740000B0164EB00042B0D43EA0C335E1844EB01
:100750001C50DA465146E7FB0201C5F313044FEA89
:100760000B3343EA14534FEA0432019C43EA060375
:10077000A4F10C040294009CCDE900B400F08AFAC4
:1007800003B0BDE8F08F00200146F9E72DE9F04DF8
:1007900081EA030404F0004B21F0004514464FF0B9
:1007A000000A23F0004150EA050220D054EA010279
:1007B0001DD0C5F30A570246C5F31303C1F3130056
:1007C000C1F30A5640F4801543F48013A7EB0608E2
:1007D000101BD64608F2FD3873EB050002D308F172
:1007E000010801E092185B41B8F1000F03DA002024
:1007F0000146BDE8F08D00204FF480110646844686
:100800000EE0171B73EB050705D3121B63EB050303
:1008100006434CEA010C49084FEA300092185B414C
:1008200050EA0107EDD152EA030012D082EA040037
:1008300083EA0501084305D0101BAB4106D2012213
:10084000002306E000224FF0004302E06FF00102B7
:1008500053101AEB06004CEB085110EB0A0041EB69
:100860000B01BDE8F04D00F006BA70B521F0004371
:1008700003430CD0C1F30A550024D5EB040564EB07
:100880000403D617AD1AB34102DB0020014670BD48
:10089000201841EB025170BDC10F80EAE07008449E
:1008A000CA079623002100F0B8B99623002211460A
:1008B00000F0B3B90EB5C10F80EAE0700844CA0772
:1008C000002140F233438DE80E000A460B4600F04B
:1008D000E1F903B000BD00F0004220F00040C10D7E
:1008E000C0F3160040F400007F2901DA00207047B1
:1008F000962903DCC1F19601C84001E09639884091
:10090000002AF4D04042704720F00040C10DC0F3EF
:10091000160040F400007F2901DA00207047962974
:1009200003DCC1F19601C840704796398840704792
:1009300070B5C1F30A5201F000450024C1F3130160
:1009400040F2FF3341F480119A4201DA002070BD79
:1009500040F233439A42A2F2334203DC5242FFF7A1
:1009600082FC00E090402C43F1D0404270BD00F08A
:10097000004230F000400AD0C10D01F56071C0F3B3
:10098000160042EA0151C208400711437047002097
:100990000146704730B5041E71F1000404DB4FF0CE
:1009A0000044404264EB0101141E73F1000405DBB6
:1009B0001C464FF00043524263EB04038B4208BFD6
:1009C000824230BD30B5041E71F1000404DB4FF0EB
:1009D0000044404264EB0101141E73F1000405DB86
:1009E0001C464FF00043524263EB0403994208BF98
:1009F000904230BD01F0004330B421F0004150EA94
:100A0000010206D00A0DA2F56072C1F31301002A9B
:100A100002DC30BC00207047440F44EAC104C1002E
:100A2000E01830BC00EBC25000F0EEB830B50B4619
:100A3000014600202022012409E021FA02F59D420E
:100A400005D303FA02F5491B04FA02F52844151EE2
:100A5000A2F10102F1DC30BD2DE9F05F0546002076
:100A600092469B4688460646814640241BE028461F
:100A7000414647462246FFF7F6FB53465A46C01A00
:100A8000914110D311461846224600F016F82D1A4F
:100A900067EB01084F4622460120002100F00DF8C7
:100AA00017EB00094E41201EA4F10104DFDC48468B
:100AB00031462A464346BDE8F09F202A04DB203A0F
:100AC00000FA02F1002070479140C2F1200320FAA1
:100AD00003F3194390407047202A06DBCB17203AD6
:100AE00041FA02F043EAE07306E041FA02F3D04033
:100AF000C2F1200291400843194670470FB4002309
:100B000000B589B00CA900910B996FF00042CB6041
:100B10001E4B06931E4B07930423CDE901321D4A59
:100B2000089202466B46002000F0CEF909B05DF84D
:100B300014FB70B586B006464FF0FF300091CDE94A
:100B40000101002015460C4604903246694604A86F
:100B5000FFF7D4FF02460498211825B108B10846D2
:100B600000E020462860049800280DD0002A02DD0D
:100B70000098884208D0081B0094CDE90104324651
:100B8000694604A8FFF7BAFF06B070BD011100085E
:100B90001F1100088D0D00082DE9F04791460F4602
:100BA00080460446002614F8015B2DB100F0EAF8F7
:100BB0000068405DC007F6D12B2D02D02D2D18D036
:100BC000641E4A463946204600F0BAFA27B1396811
:100BD000A14201D1C7F8008071054FF002040BD586
:100BE0004042002803DD04F097FE0460A007BDE842
:100BF000F08746F48066E4E70028F8DA04F08CFE1B
:100C000004606FF00040F2E70029A8BF7047401C65
:100C1000490008BF20F00100704710B4B0FA80FC12
:100C200000FA0CF050EA010404BF10BC704749B14F
:100C3000CCF1200421FA04F411FA0CF118BF0121BF
:100C400021430843A3EB0C01CB1D4FEA00614FEA9F
:100C5000102042BF002010BC704700EBC35010446E
:100C60000029A4BF10BC7047401C490008BF20F0F9
:100C7000010010BC704710B5141E73F1000408DAAF
:100C8000401C41F1000192185B411A4301D120F050
:100C9000010010BD2DE9F04D92469B4611B1B1FA0D
:100CA00081F202E0B0FA80F220329046FFF705FFB1
:100CB00004460F4640EA0A0041EA0B0153465A46F1
:100CC000084313D0114653EA010019D0C8F140027D
:100CD0005046FFF7C8FA05460E465046594642466A
:100CE000FFF7EBFE084305D0012004E0204639461B
:100CF000BDE8F08D0020054346EAE0762C433743FB
:100D00000A986305E40AA0EB08000022FD0A44EA01
:100D100047540A3002D500200146E9E701051019C1
:100D20006941DDE9084500196941BDE8F04DA2E7D8
:100D3000C1F30A52C1F3130140F2FF3341F48011B1
:100D40009A4202DA00200146704740F233439A4249
:100D5000A2F2334202DC5242FFF785BAFFF7ADBE82
:100D6000064C074D06E0E06840F0010394E80700F8
:100D700098471034AC42F6D3FFF7DEF910CC0008E8
:100D800030CC0008004870472CCA000810B5044653
:100D9000FFF7F8FF0068005D00F0010010BD0000E3
:100DA0002DE9FF4F087883B09946FF2805D0491CEC
:100DB0002D2804D00024002008E000200BE00124AE
:100DC000F9E700EB800003EB4000491C0B78FF2B98
:100DD000F7D104B1404200230293147819461D460E
:100DE0002D2C01D02B2C04D1521C2D2C13D00024DF
:100DF0000294AA461478FF2C0FD00A25A3FB05788D
:100E000001FB05814FF0000C03FB0C11521CE31990
:100E10004AEB0101EEE70124EAE7814453EA0100CD
:100E200002D019F5C87F06DA03980021C0E9001145
:100E300007B0BDE8F08F0025AE4E2F46DFF8B88230
:100E4000184600F038FACDE90001B9F1000002DAE5
:100E5000C9F1000400E004460023A74A1AEB030B83
:100E600042EB045A12E0E00707D02A4633463846E0
:100E70004146FFF719FC074688462A463346104686
:100E80001946FFF711FC05460E466410002CEAD106
:100E9000DDE90001B9F1000F5A46534606DAFFF7C3
:100EA00075FC3A464346FFF771FC05E0FFF7FCFB93
:100EB0003A464346FFF7F8FB029A0AB181F0004137
:100EC000039AC2E90001B3E72DE9FF4F1F468DB039
:100ED000D7E901464FF0FF382E2045464FF0000974
:100EE0000B90B9696D1C0E988847396A824688470D
:100EF0000028F6D1BAF1FF3F0AD024F4D064002EC6
:100F000011DDBAF12B0F08D0BAF12D0F0BD102E091
:100F1000404611B08DE744F48064B9696D1C0E98A9
:100F200088478246761E6946600501D52D2000E07F
:100F30002B208DF8000001F1010B0DF1200809E0D4
:100F4000B9696D1C0E98884782460F9844F4007466
:100F5000761E0560002E02DDBAF1300FF0D00B993D
:100F60008A453ED144F0800406E00F99681CA9F13F
:100F7000010944F400740860B9696D1C761E0E986E
:100F8000884782463028F0D02BE00B998A4505D15E
:100F9000200603D444F08004761E18E0504605F085
:100FA000BFF808B30DF11301761E44F400748B45AD
:100FB00008D2AAF130000BF8010B200607D5A9F1E1
:100FC000010003E0200602D409F101008146A005DA
:100FD00002D50F99681C0860B9696D1C0E98884786
:100FE0008246002ED1DC53E0002E51DDBAF1650FB0
:100FF00002D0BAF1450F4BD1A00549D5B9696D1C96
:1010000024F44074761E0E9888478246002E0CDD2C
:101010002B2804D0BAF12D0F07D144F48074B9699C
:101020006D1C0E9888478246761EE00501D52D215D
:1010300000E02B2108F8011BCDF82C8021E00DF1F8
:101040002901761E44F4007488450CD2AAF13000C0
:1010500010F0FF0088F8000002D10B99884509D9EB
:1010600008F1010806E0E00501D5244801E042F25C
:101070000F708146B9696D1C0E98884782460F989B
:101080000560002E04DD504605F04AF80028D6D150
:10109000F9690E988847FF208BF8000088F8000057
:1010A0000020069007904B466A4608A906A8FFF75D
:1010B00077FEA00502D46FF001002AE714F0240F98
:1010C0000AD0E00714D1DDE906123868031D3B6041
:1010D0000068C0E900120BE0DDE90601FFF78AFCB9
:1010E0000146E00704D13868021D3A6000680160DB
:1010F00028460EE7000014400000F03FF1D8FFFF43
:10110000426842B1016811F8013B23B1521EC0E9A7
:101110000012184670470121C160881E704742685E
:101120005AB1C368016843B983688B4205D0491E30
:10113000521CC0E90012002070474FF0FF3070478A
:101140002DE9F05F82460078002715468B460AF1AC
:101150000104B946302801D09DB113E014F8010B09
:101160000127782803D0582801D045B10AE00DB1F5
:10117000102D07D10027102514F8010B02E00825D7
:1011800000E00A250026B0460EE005FB080005FB3E
:1011900006F1012701EB10461FFA80F8B6F5803FF3
:1011A00000D3B94614F8010B294600F076F8002860
:1011B000EBDABBF1000F05D00FB1641E00E054461E
:1011C000CBF80040B9F1000F06D004F0A5FB0221D6
:1011D0000160C81EBDE8F09F48EA0640FAE72DE925
:1011E000F04D00231A461B1A8A4103DB00200146FA
:1011F000BDE8F08DC1F30A52C1F3130141F480152B
:101200004FF0000BD10702D100186D41521E00278C
:10121000044640F2FF11384601EB620A3E46804622
:10122000024600204FF48011FFF71DF8C2197141EA
:10123000BB1846EB0100B4EB030C75EB000C04D3B8
:10124000E41A65EB000517460E46241908F1010063
:101250006D4180463428E3DDF91946EB0600091B91
:10126000A84103D24FF0FF32134601E0002213469B
:101270001BEB070046EB0A51BDE8F04DFFF7FBBC46
:101280000EB540F2334102910021CDE900110A462A
:101290000B46FFF7FFFC03B000BD3A2800D2303800
:1012A00020F02002412A01D3A2F13700884201D365
:1012B0004FF0FF3070470EB540F2334202920022E9
:1012C000CDE900221346FFF7E5FC03B000BD70B581
:1012D0008C1810F8015B15F0070301D110F8013BE1
:1012E0002A1106D110F8012B03E010F8016B01F868
:1012F000016B5B1EF9D12B0705D40023521E0DD4C0
:1013000001F8013BFAE710F8013BCB1A921C03E00D
:1013100013F8015B01F8015B521EF9D5A142D8D345
:10132000002070BD70B5044600688168C943C907D4
:1013300017D1816821F00101816000F053FF05465B
:101340000AE000BF00F04EFF401B022804D92068CD
:101350008068C043C00706D020688068C043C007CB
:10136000F0D0002070BDA06A40F01000A062E06ADA
:1013700040F00100E062012070BD0000F8B50026D9
:101380000446009600688168C943C9072DD081686A
:1013900041F001018160164816490068B0FBF1F088
:1013A00000E0401E00900028FBD100F01BFF054626
:1013B00016E000BF00F016FF401B022810D920687D
:1013C0008068C043C0070BD0A06A40F01000A06244
:1013D000E06A40F00100E06284F824600120F8BD7A
:1013E00020688068C043C007E4D10020F8BD000039
:1013F0003000002040420F0010B51FA004F024FA76
:1014000026A004F021FA2EA004F01EFA35A004F064
:101410001BFA3DA004F018FA44A004F015FA4DA000
:1014200004F012FA55A004F00FFA5EA004F00CFAD2
:1014300067A004F009FA71A004F006FA7AA004F09B
:1014400003FA84A004F000FA8DA004F0FDF997A03F
:1014500004F0FAF9A1A004F0F7F9ACA004F0F4F953
:10146000B7A004F0F1F9BFA004F0EEF9BDE8104018
:10147000C9A004F0E9B9000020202020202020206D
:101480002020202020202020202020202020205F1D
:101490006F6F4F6F6F5F0D0A00000000202020204B
:1014A000202020202020202020202020202020203C
:1014B00020206F383838383838386F0D0A0000006F
:1014C000202020202020202020202020202020201C
:1014D0002020202020383822202E202238380D0AC3
:1014E000000000002020202020202020202020207C
:1014F00020202020202020202020287C202D5F2D2F
:10150000207C290D0A0000002020202020202020FF
:1015100020202020202020202020202020204F5C60
:1015200020203D20202F4F0D0A00000020202020E9
:101530002020202020202020202020202020205F6C
:101540005F5F5F2F602D2D2D275C5F5F5F5F0D0A52
:10155000000000002020202020202020202020200B
:1015600020202020202E2720205C5C7C2020202092
:10157000207C2F2F2020602E0D0A0000202020200C
:101580002020202020202020202020202F20205C10
:101590005C7C7C7C20203A20207C7C7C2F2F2020AF
:1015A0005C0D0A0020202020202020202020202048
:1015B0002020202F20205F7C7C7C7C7C202D3A2DDD
:1015C000207C7C7C7C7C2D20205C0D0A00000000AF
:1015D0002020202020202020202020202020207CAF
:1015E0002020207C205C5C5C20202D20202F2F2FB1
:1015F000207C2020207C0D0A0000000020202020DC
:1016000020202020202020202020207C205C5F7CA7
:10161000202027275C2D2D2D2F272720207C2020E0
:10162000207C0D0A00000000202020202020202007
:10163000202020202020205C20202E2D5C5F5F2099
:1016400020602D6020205F5F5F2F2D2E202F0D0A40
:10165000000000002020202020202020202020200A
:10166000205F5F5F602E202E2720202F2D2D2E2D16
:101670002D5C2020602E202E205F5F0D0A000000D0
:10168000202020202020202020202E20273C202029
:10169000602E5F5F5F5C5F3C7C3E5F2F5F5F5F2E15
:1016A0002720203E272E0D0A0000000020202020A9
:1016B00020202020207C207C203A2020602D205CCF
:1016C000602E3B605C205F202F603B2E602F202D22
:1016D0002060203A207C207C0D0A00002020202061
:1016E00020202020205C20205C20602D2E20202027
:1016F0005C5F205F5F5C202F5F5F205F2F202020DA
:101700002E2D60202F20202F0D0A000020202020C9
:101710003D3D3D3D3D3D602D2E5F5F5F5F602D2E69
:101720005F5F5F5C5F5F5F5F5F2F5F5F5F2E2D605E
:101730005F5F5F5F2E2D273D3D3D3D3D3D0D0A0026
:101740002020202020202020202020202020202099
:1017500020202020202020603D2D2D2D3D270D0A0A
:1017600000000000202020205E5E5E5E5E5E5E5E09
:101770005E5E5E5E5E5E5E5E5E5E5E5E5E5E5E5E89
:101780005E5E5E5E5E5E5E5E5E5E5E5E5E5E5E5E79
:101790005E5E5E5E5E0D0A0020202020202020205C
:1017A00042756464686120626C6573732074686557
:1017B00072652077696C6C206E6576657220626553
:1017C00020627567730D0A0D0A000000FEE7000035
:1017D00030B5034600208C240DE000BF13F8012B28
:1017E00050400022C50702D084EA500000E04008C3
:1017F000521C082AF6DB491E89B2EFD230BD704771
:101800001CB50024012811D0022811D0032814D0BF
:10181000042814D00BA14A20CDE900010E4B0FA2E1
:1018200014A1012006F082FA20461CBD134800E0F6
:1018300013480068406A84B2F6E71248F9E7124894
:10184000F7E700004D6F746F725F4E756D20455263
:10185000524F520D0A000000A2B900082E2E5C4221
:1018600053505C6273705F656E636F6465722E6364
:1018700000000000454E434F44455200A40600209E
:10188000EC060020340700207C0700201CB53C211A
:10189000154801F023FB3C21144801F01FFB3C21BB
:1018A000134801F01BFB3C21124801F017FB47F2E3
:1018B00030542146012000F03DF82146022000F07E
:1018C00039F82146032000F035F82146042000F0C5
:1018D00031F809A12A20CDE900010D4B0DA213A179
:1018E000032006F023FA1CBDA4060020EC0600200D
:1018F000340700207C070020456E636F646572200A
:10190000496E697420537563636573730D0A000033
:1019100081B900082E2E5C4253505C6273705F6583
:101920006E636F6465722E6300000000454E434F86
:10193000444552001CB5012810D0022810D00328BD
:1019400010D0042810D00AA13820CDE900010D4B99
:101950000DA213A1012006F0E9F91CBD124804E014
:10196000124802E0124800E01248006841621CBDC3
:101970004D6F746F725F4E756D204552524F520D10
:101980000A0000008EB900082E2E5C4253505C62A3
:1019900073705F656E636F6465722E630000000094
:1019A000454E434F44455200A4060020EC0600205B
:1019B000340700207C07002072B6FEE7F8B500244B
:1019C000009490F824202546012A12D0012280F8A4
:1019D00024204A681F23072A0DD20668776B521EFF
:1019E00002EB820293409F430B6893401F4377634F
:1019F00019E00220F8BD06680D2A0AD2376BD21F03
:101A000002EB820293409F430B6893401F4337636E
:101A100009E0F76A0D3A02EB820293409F430B689C
:101A200093401F43F7620A68072306680A2A0AD30D
:101A3000F7680A3A02EB420293409F438B68934057
:101A40001F43F76008E0376902EB420293409F436F
:101A50008B6893401F4337610A68102A01D0112A0E
:101A600020D1124B02689A4217D193681B0219D4F5
:101A7000936843F4000393600968102912D10C495C
:101A80000C4A0968B1FBF2F101EB8101490000E069
:101A9000491E00910029FBD104E0816A41F0200138
:101AA0008162012480F824502046F8BD00240140C2
:101AB0003000002040420F000068C06C70470000FA
:101AC0002DE9F04104004FF000057FD0A06A002608
:101AD00028B9E66284F82460204600F081F82046A8
:101AE000FFF720FCA16AC90600D420B1A06A40F02B
:101AF0001000A0626AE0A16A21F4885141F002015D
:101B0000A162334923688B42E16904D1B1F5402FCA
:101B100001D14FF40021277B4FF4807C41EA47023A
:101B200061680A43A168614508D0012906D00021F7
:101B300094F814E0BEF1010F02D00AE06146F7E725
:101B4000C7B1A76A47F02007A762E76A47F0010715
:101B5000E7625F6827F469470F435F60236899680D
:101B60001C4F394011439960A16861450BD0012990
:101B700009D00CE0DFF860E0A7690EEB47370F43B0
:101B800047F40061E5E7218A0D05A5F58015216878
:101B9000CB6A23F470032B43CB62216889680F4B17
:101BA0001940914208D1E662A16A21F0020141F098
:101BB0000101A162BDE8F081A06A20F0020040F0BE
:101BC0001000A062E06A40F00100E0620120F1E74D
:101BD000003C0140FDF7E1FF00E0FFFFFE0E1FFFAC
:101BE00000B585B000210091019102910391154A41
:101BF00001681548914209D1816941F40071816100
:101C0000806900F40070049005B000BD0F4A914255
:101C1000FAD1816941F480618161816901F4806157
:101C20000491816941F0080181618069694600F091
:101C3000080004900120009003200190044800F067
:101C4000C3F9E1E7002401400010024000280140F0
:101C5000000C01402DE9F84300270D46044600978B
:101C600000F0C0FA804620688168C90508D5A06ADE
:101C700040F02000A06284F824700120BDE8F883C1
:101C80004168C90503D4C06A10F4700F2AD002203D
:101C900000F066FB3B490968B1FBF0F62068036978
:101CA00039490B424FEA61014FEAA1121FD1C368C3
:101CB0004FEA611C13EA0C0F19D103690B4225D1BD
:101CC000C068104222D1142023E0681C0AD02DB134
:101CD00000F088FAA0EB0800A84203D92068006849
:101CE000800725D5206800688007EED52DE00369C0
:101CF0000B4202D1C168114206D0026923490A424F
:101D000006D1C068084203D1542002E0292000E037
:101D1000FC204643009816E0681C11D02DB100F05D
:101D200061FAA0EB0800A8420AD90098B04207D295
:101D3000A06A40F00400A06284F8247003209DE7AC
:101D40000098401C0090B042E6D321686FF012006A
:101D50000860A06A40F40070A06220688068C0F348
:101D6000424007280CD1207B50B9A06A20F4807033
:101D7000A062A06AC00403D4A06A40F00100A0627F
:101D800000207BE73000002024499224499224005F
:101D900070B5044690F8240001280DD0012084F885
:101DA00024002046FFF7EAFA02004FF0000005D0B9
:101DB00084F82400104670BD022070BDA16A40F274
:101DC0000123994341F48071A1621F4D23681F498B
:101DD000AB4218D10E6816F4702F14D0A66A46F4E0
:101DE0008016A6620E68760505D5A66A26F400560A
:101DF00046F48056A662A66AF6040AD5E66A26F07C
:101E00000606E66206E0A66A26F48016A6625E680A
:101E1000E9E7E06284F824006FF0020018602068AF
:101E20008368C3F34243072B05D1A84208D1096850
:101E300011F4702F04D0816841F480118160B9E7FA
:101E4000816841F4A001F9E7002801400424014021
:101E500010B590F821100022022905D004218163D9
:101E600080F82020012010BD01680B6823F00E03CC
:101E70000B6001680B6823F001030B6090F84030A1
:101E8000C46B012101FA03F3636080F8211080F82C
:101E90002020104610BD00002DE9F05F90F82110C1
:101EA0000024022903D004218163012485E0016814
:101EB0000A6822F00E020A6001680A6822F0010234
:101EC0000A603F4E3E4FB215DFF8F4C0DFF8F090E5
:101ED000DFF8ECA0DFF8E8B0DFF8E4E00168783F75
:101EE00013011502ACF1640CA9F15009AAF13C0AE6
:101EF000ABF1280BAEF1140E4FF48018B14227D984
:101F0000B9420ED0614512D049451DD0514518D077
:101F1000594518D0714501D1424615E0294EB142CC
:101F200001D1012210E0274E1436B14201D1102216
:101F30000AE0244E2836B14206D0224A3C32914271
:101F400001D11A4600E02A461E49091F0A602BE00B
:101F5000B94213D0614517D0494522D051451DD013
:101F600059451DD0714501D142461AE0B14202D116
:101F70004FF0807215E0134EB14201D1012210E002
:101F8000104E1436B14201D110220AE00D4E28360F
:101F9000B14206D00B4A3C32914201D11A4600E0D0
:101FA0002A46074980394A60012180F82110002122
:101FB00080F82010416B01B188472046BDE8F09FB2
:101FC00080000240080402402DE9F84FDFF8C89174
:101FD000002409F1040A0AF1040B23460F270BF130
:101FE000040ED1E00125A54006EA0502AA4276D1F9
:101FF000DFF8A8C14E68A6EB0C0866452BD00DDCB7
:10200000032E34D005DC36B3012E19D0022E2FD189
:102010001BE0112E16D0122E2AD119E0B8F5881F18
:1020200019D006DCB8F5803F15D0B8F5801F1FD158
:1020300011E0B8F5001F0ED0B8F5041F18D10AE062
:10204000CB6815E0CB681B1D12E0CB6808330FE0AE
:10205000CB680C330CE08B682BB1012B4FF00803DD
:1020600003D0456104E0042302E0056100E00023A1
:10207000FF2A01D8064601E000F104064FEA840574
:1020800001D9A5F12005D6F8008007FA05FC28EA59
:102090000C0803FA05F548EA0508C6F800804D6803
:1020A000ED0070D53E4DAE6946F00106AE61AD69FA
:1020B00024F0030605F0010500953A4D06EB050CEA
:1020C000DCF80850A607360F07FA06F825EA0805D7
:1020D000DFF8D480404503D14FF0000825E052E0FE
:1020E000DFF8C880404502D14FF001081DE0DFF85D
:1020F000C080404502D14FF0020816E0DFF8B480FE
:10210000404502D14FF003080FE0DFF8AC804045B6
:1021100002D14FF0040808E0DFF8A080404502D16A
:102120004FF0050801E04FF0060808FA06F848EA03
:102130000508CCF808804D68D9F80060ED034D46DD
:1021400001D5164300E096432E604D68DAF8006032
:10215000AD03554601D5164300E096432E604D6809
:10216000DBF80060ED025D4601D5164300E09643C2
:102170002E604D68DEF80060AD02754601D516434D
:1021800000E096432E60641C0A681646E2407FF425
:1021900029AFBDE8F88F00000004014000001110D5
:1021A000001002400000014000080140000C014006
:1021B000001001400014014000180140001C0140C3
:1021C0008068084000D001207047C26821EA0203FD
:1021D0000A4043EA0241016170470AB10161704758
:1021E0000904FBE7014880687047000024000020D4
:1021F0000248816802781144816070472400002001
:10220000074810B5016841F010010160032000F09B
:1022100095F80F2000F006F800F03EF8002010BD01
:102220000020024000B5014687B00022362000F0B1
:1022300065F8362000F054F81348C16941F01001E8
:10224000C161C06905A900F010000690684600F061
:10225000FDF900F01BFA0D494000B0FBF1F10D480B
:102260000B4A491E0260416040F2E7320021C0E99A
:102270000321816000F05AFC10B1012007B000BDBD
:10228000044800F095FCF9E70010024040420F00BE
:1022900000100040940800200F4808B5816941F003
:1022A00001018161816901F001010091C16941F081
:1022B0008051C161C069002200F0805000900F2160
:1022C000901E00F01BF80548416821F0E06141F0E4
:1022D0000071416008BD0000001002400000014094
:1022E000002809DB00F01F02012191404009800015
:1022F00000F1E020C0F8001170470000F0B40E4B70
:102300001B680C46C3F30223C3F10705042D00D953
:102310000425191D072901D2002300E0DB1E012638
:1023200006FA05F1491E214099409E40761E16404E
:102330003143F0BC03F0E0BA0CED00E0064900F0D8
:10234000070208684FF6FF03184040EA0220034ADC
:1023500010430860704700000CED00E00000FA0533
:1023600010B52CA401461DCC86B08DE81D002DA013
:102370002D4C00680490002004292FD00BDC01298B
:102380002FD0022928D100F091F96168C1F3813181
:10239000491C49001EE0082920D010291CD1616881
:1023A0002268D20118D5C1F38342C9031DF8020087
:1023B00009D5616804AAC1F34041515C1B4AB2FBD4
:1023C000F1F1484301E01A4948436168490203D4E6
:1023D00040000321B0FBF1F006B010BD00F076F92B
:1023E000FAE7226AC2F30121012903D1920701D53C
:1023F000C803F1E7022905D1626A920702D549F6BE
:102400004040E9E70329E7D121688903E4D54FF289
:102410002440E1E702030405060708090A0B0C0D36
:102420000E0F1010010200000010024000127A008E
:1024300000093D002DE9F84305460078354CC007FA
:1024400054D0E0690026C00008D4E06940F0805014
:10245000E061E069012600F0805000902E4801689C
:10246000C90512D40168804641F480710160FFF70C
:10247000B9FE074605E000BFFFF7B4FEC01B6428A5
:1024800023D8D8F80000C005F6D5206A10F44070B3
:1024900021D0A98801F4407181421CD0206A1F49D3
:1024A000012220F440700A6000220A602062C00706
:1024B00011D0FFF797FE074641F2883808E000BFC9
:1024C000FFF790FEC11B414502D90320BDE8F88308
:1024D000206A8007F4D5206A696820F440700843B8
:1024E00020621EB1E06920F08050E061287880070A
:1024F00005D56068A96820F44040084360602878EA
:10250000C00605D56068696920F4800008436060F2
:102510000020DBE70010024000700040400442420F
:102520002DE9F0470F46050061D0434E306800F0BA
:102530000700B84209D2306820F007003843306005
:10254000306800F00700B84251D128683B4C810741
:1025500012D5400703D5606840F4E06060602878D9
:10256000000703D5606840F4605060606068A96847
:1025700020F0F000084360602878C00728D0686821
:10258000012810D02168022810D0890700292EDAEE
:10259000616821F0030101436160FFF723FE80467B
:1025A00041F288390DE021688903EFE78901EDE701
:1025B000FFF718FEA0EB0801494502D90320BDE84A
:1025C000F0876068696800F00C00B0EB810FEFD114
:1025D000306800F00700B8420BD9306820F00700DF
:1025E00038433060306800F00700B84201D0012065
:1025F000E5E72878400705D56068E96820F4E060E1
:10260000084360602878000706D56068296920F4CF
:10261000605040EAC100606000F058F86168084A04
:10262000C1F30311515CC8400649086006480068C0
:10263000FFF7F8FD0020C2E7002002400010024032
:1026400060B9000830000020280000200F2202603E
:102650000C4A536803F003034360536803F0F0032C
:102660008360536803F4E063C36052684FF4E0632F
:1026700003EAD20202610448006800F00700086023
:102680007047000000100240002002400448054945
:1026900000684968044AC1F30221515CC840704790
:1026A000300000200010024070B9000804480549BD
:1026B00000684968044AC1F3C221515CC8407047B0
:1026C000300000200010024070B9000812A185B04F
:1026D0000FC98DE80F0014A0144A006804905168D7
:1026E000134801F00C03042B10D0082B0ED1C1F3BA
:1026F0008343C9031DF803000AD5516804AAC1F336
:102700004041515C0A4A5043B0FBF1F005B07047BC
:1027100008494843FAE700000203040506070809D0
:102720000A0B0C0D0E0F10100102000000100240E9
:1027300000127A0000093D002DE9F84F040070D026
:102740002078C04DC00749D06868C0F381000128D7
:1027500007D06868C0F38100022809D16868C00307
:1027600006D52868800339D560680028E7D035E0B1
:102770006068B0F5803F0BD010B1B0F5A02F11D03C
:10278000286820F480302860286820F4802002E047
:10279000286840F480302860606890B1FFF722FD1F
:1027A00006460AE0286840F480202860F0E700BF71
:1027B000FFF718FD801B642873D828688003F7D5BD
:1027C0000CE0FFF70FFD064605E000BFFFF70AFD2E
:1027D000801B6428F0D828688003F7D420789A4EAC
:1027E00080074FF001094FF0000839D5686810F0F4
:1027F0000C0F07D06868C0F38100022809D168680F
:10280000C00306D42868800714D52069012808D1A0
:1028100010E02069B0B1C6F80090FFF7E3FC07466E
:1028200005E00AE1FFF7DEFCC01B0228C4D82868D7
:102830008007F7D52868616920F0F80040EAC100F8
:1028400028600DE0C6F80080FFF7CCFC074604E0E6
:10285000FFF7C8FCC01B022823D828688007F7D4DC
:10286000207800072CD57948A169D9B1C0F800902B
:10287000FFF7B8FC074604E0FFF7B4FCC01B0228D2
:102880000FD8686A8007F7D571484FF4FA5100688D
:10289000B0FBF1F0009000BF0098411E0091FAD209
:1028A0000EE080E0C0F80080FFF79CFC074604E0E3
:1028B000FFF798FCC01B022875D8686A8007F7D418
:1028C0002078400760D5E8690027C00008D4E8698F
:1028D00040F08050E861E869012700F080500090E6
:1028E0005C480168C90513D40168834641F48071CE
:1028F0000160FFF777FC824606E000BFFFF772FC3D
:10290000A0EB0A0064284ED8DBF80000C005F5D51E
:10291000E06801280AD008B1052813D0286A20F001
:1029200001002862286A20F0040002E0286A40F0D2
:1029300001002862E06841F2883B98B1FFF752FC41
:1029400082460BE0286A40F004002862EEE700BFF0
:10295000FFF748FCA0EB0A0159455AD8286A8007BE
:10296000F6D50CE0FFF73EFC824605E0FFF73AFCA7
:10297000A0EB0A0159454CD8286A8007F6D41FB14C
:10298000E86920F08050E861E06988B36968C1F3C4
:102990008101022944D00228C6F8608004D0FFF7E4
:1029A00021FC044638E034E0FFF71CFC074604E055
:1029B000FFF718FCC01B02282BD828688001F7D429
:1029C000206AB0F5803F05D16868A16820F4003026
:1029D00008436860D4E908010843696821F4741168
:1029E00008436860C6F86090FFF7FCFB044606E009
:1029F00025E000BFFFF7F6FB001B022809D8286876
:102A00008001F7D51BE000BFFFF7ECFB001B02289D
:102A100002D90320BDE8F88F28688001F4D40EE0C5
:102A20000128F7D06868226A00F48031914204D10D
:102A3000616A00F47010884201D00120EAE70020AA
:102A4000E8E70000001002400000424280044242D9
:102A500030000020007000407047704710B590F8BB
:102A60003C20012A22D0012280F83C20CA688C68D0
:102A700022F4407222434C6822F4806222430C68A4
:102A800022F4006222430C6922F4805222434C69F2
:102A900022F400522243C969002322F480420A43EF
:102AA00001684A6480F83C30002010BD022010BD4F
:102AB00070B590F83C20012A2CD0012480F83C40CD
:102AC000022280F83D2003685A689D6822F0700653
:102AD0000A6832435A60104B02689A420ED00F4B7C
:102AE0009A420BD0B2F1804F08D00D4B9A4205D0DC
:102AF0000C4B9A4202D00C4B9A4204D1496825F003
:102B000080031943916080F83D40002180F83C101B
:102B1000084670BD022070BD002C01400034014009
:102B20000004004000080040000C004010B5040004
:102B300003D094F83D0010B107E0012010BD002043
:102B400084F83C00204600F01FF8022084F83D0085
:102B5000211D206802F050FB012084F8460084F813
:102B60003E0084F83F0084F8400084F8410084F877
:102B7000420084F8430084F8440084F8450084F857
:102B80003D00002010BD000008B5006806498842DD
:102B900008D10648816941F400518161806900F4DF
:102BA0000050009008BD00000034014000100240B9
:102BB00090F83D10012901D001207047022180F8D2
:102BC0003D100168CA6842F00102CA6000680E49FF
:102BD00088420ED00D4988420BD0B0F1804F08D00A
:102BE0000B49884205D00B49884202D00A498842E5
:102BF00004D1816801F00701062903D0016841F082
:102C00000101016000207047002C014000340140A8
:102C10000004004000080040000C004070B504466D
:102C200090F83C00012817D0012584F83C50022080
:102C300084F83D002068826822F0770222F47F4207
:102C400082600868502830D00DDC20284DD005DC8B
:102C500098B310283BD148E0022070BD302844D002
:102C6000402834D139E0602828D0702806D0B0F54B
:102C7000805F2CD0B0F5005F29D10AE0CB68D1E9A4
:102C80000121206802F00BFB2068816841F0770188
:102C900009E0CB68D1E90121206802F000FB20683F
:102CA000816841F48041816011E0CA684968206808
:102CB00002F0CAFB5021206807E016E0CA684968A4
:102CC000206802F0D2FB6021206802F0F2FA84F85A
:102CD0003D50002084F83C0070BDCA6849682068F7
:102CE00002F0B2FB40212068EFE72268014610465F
:102CF000EBE72DE9F0410D46040003D094F83D00C8
:102D000018B108E00120BDE8F081002084F83C0003
:102D1000204600F041F8022084F83D0020688168D8
:102D200044F2070291438160211D206802F064FA99
:102D3000226890689169166A2B68AF69034340F274
:102D40000330814341EA0721A868EF6908434FF641
:102D5000FC418843E96840EA0720014328692F6A5B
:102D6000000140EA0730084369686D6926F02206D1
:102D700046EA0515294393602268906154F8460B92
:102D80000162012004F81F09E0752076E0762077C3
:102D9000A0750020B7E7000070B586B0002500954B
:102DA00001950295039500684549464A464E474CB1
:102DB000B0F1804F22D0464B98424ED1C86940F0C6
:102DC0000200C861C86900F002000490886940F000
:102DD000080088618869694600F008000490302086
:102DE00000903046FFF7F0F8606820F4406040F053
:102DF000E06040F40060606006B070BDC86940F0FB
:102E00000100C861C86900F001000490886940F0C1
:102E100004008861886900F004000490886940F02B
:102E2000080088618869694600F0080004904FF442
:102E3000004000901046FFF7C7F80820CDE90005D4
:102E4000694630460295FFF7BFF8606820F440708D
:102E500040F0E06040F48070CDE71E4B984214D102
:102E6000C86940F00400C861C86900F0040004901B
:102E7000886940F0080088618869694600F00800A8
:102E80000490C0200090304616E0134B9842B3D116
:102E9000C86940F00800C861C86900F008000490E3
:102EA000886940F0040088618869694600F0040080
:102EB0000490032000901046FFF786F89CE700007E
:102EC0000010024000080140000C014000000140D9
:102ED0000004004000080040000C004070B590F86D
:102EE0003E60044690F83F5090F8423090F84320FE
:102EF000022021B104290ED0012E1BD114E0012E95
:102F000018D1012B16D184F83E0084F8420001222A
:102F10000021206820E0012D0CD1012A0AD184F87B
:102F20003F0084F8430014E0012D03D1012B01D1AF
:102F3000012A01D0012070BD84F83E0084F83F00D2
:102F400084F8420084F8430001220021206802F046
:102F500099F901220421206802F094F9206801689F
:102F600041F001010160002070BD704770B504465A
:102F7000006801694FF00005C943890715D4C1688D
:102F8000C943890711D4E91E016101202077206817
:102F900080698007204602D0FFF7E7FF04E000F0D9
:102FA000C1F8204600F050F9257720680169C9432F
:102FB000490717D4C168C943490713D46FF0040106
:102FC0000161022020772068806910F4407F20464C
:102FD00002D0FFF7CAFF04E000F0A4F8204600F09A
:102FE00033F9257720680169C943090716D4C168F8
:102FF000C943090712D46FF008010161042020774A
:103000002068C0698007204602D0FFF7AEFF04E0C9
:1030100000F088F8204600F017F92577206801694C
:10302000C943C90617D4C168C943C90613D46FF090
:1030300010010161082020772068C06910F4407FEA
:10304000204602D0FFF791FF04E000F06BF8204625
:1030500000F0FAF8257720680169C943C90708D14B
:10306000C168C943C90704D1891E0161204600F027
:1030700047F920680169C943090609D4C168C943F1
:10308000090605D46FF0800101612046FFF7E4FCDA
:1030900020680169C943490609D4C168C943490682
:1030A00005D46FF040010161204600F033F920683B
:1030B0000169C94389060BD4C168C943890607D48D
:1030C0006FF0200101612046BDE87040FFF7C5BCEC
:1030D00070BD000000B585B0002100910191029102
:1030E000039100680C49884213D10C48816941F072
:1030F000100181618069694600F0100004904FF46E
:103100007070009002200190032003900448FEF7A5
:103110005BFF05B000BD000000340140001002401C
:1031200000100140704770B5044690F83C000D4611
:1031300001280AD0012084F83C0042B1042A18D0AA
:10314000082A2AD00C2A4DD139E0022070BD20680F
:1031500002F0B8F82068816941F0080181612068B7
:10316000816921F004018161206881692A69114324
:1031700011E0206802F0D6F82068816941F400610E
:1031800081612068816921F48061816120688169A1
:103190002A6941EA0221816124E0206802F0F8F8FE
:1031A0002068C16941F00801C1612068C16921F04E
:1031B0000401C1612068C1692A69114311E02068D6
:1031C00002F01AF92068C16941F40061C161206808
:1031D000C16921F48061C1612068C1692A6941EA3D
:1031E0000221C161002084F83C0070BD10B50400CC
:1031F00003D094F83D0010B107E0012010BD00207D
:1032000084F83C00204600F01EF8022084F83D00BF
:10321000211D206801F0F0FF012084F8460084F8A9
:103220003E0084F83F0084F8400084F8410084F8B0
:10323000420084F8430084F8440084F8450084F890
:103240003D00002010BD70477047000010B50446D7
:10325000022249B104290ED0082913D094F8410064
:10326000012816D0012010BD94F83E000128F9D1A4
:1032700084F83E200FE094F83F000128F2D184F852
:103280003F2008E094F840000128EBD184F840206A
:1032900001E084F841200122206801F0F3FF134986
:1032A0002068134A884201D0904203D1436C43F412
:1032B00000434364206888420DD090420BD0B0F1A7
:1032C000804F08D00B49884205D00B49884202D074
:1032D0000A49884204D1816801F00701062903D018
:1032E000016841F001010160002010BD002C014087
:1032F000003401400004004000080040000C004081
:1033000000680349884201D1FEF772BF7047000090
:10331000001000407047704770470000F8B5026821
:1033200004461068D168536910F00F0F4FF0000584
:1033300053D003F0010601F4907737435FD0C20702
:1033400005D0CA0503D5226C42F00102226442076F
:1033500005D5DA0703D0226C42F00202226482070C
:1033600005D5DA0703D0226C42F00402226402077A
:1033700007D501F02002324303D0226C42F008024C
:103380002264226C002A34D0800604D5880602D537
:10339000204602F09CF820684069216CC0F3801040
:1033A000090700D430B3204602F079F8206841695B
:1033B00049061BD5416921F040014161A06BA8B1CC
:1033C00058494163A06BFEF767FD002811D0A06B40
:1033D000416B01B0BDE8F040084783060FD58B066E
:1033E0000DD52046BDE8F84002F071B82046FFF741
:1033F00093FFF8BD2046FFF78FFF2564F8BD266BCD
:103400002023012E52D1C60650D5CE064ED51068C7
:1034100050680090506940062AD5A16B0868406842
:103420000004000CEAD0A68D8642E7D9E0858869C1
:10343000202818D0D06820F48070D06020684169BE
:1034400021F0010141612068416921F040014161A1
:1034500084F83E3025632068C16821F01001C16006
:10346000A06BFEF7F5FCA08DE18D401A81B219E04A
:10347000A08DE18D401A81B2E08D0028BED00029D8
:10348000BCD0D06820F49070D0602068426922F0EF
:103490000102426184F83E3025632068C26822F050
:1034A0001002C2602046FFF736FFF8BD05062BD597
:1034B0000D0629D594F83D002128F6D1A068B0F575
:1034C000805F01D12069B0B1206A411C216221686E
:1034D00000784860E08C401E0004000CE084E4D1D9
:1034E0002068C16821F08001C1602068C16841F096
:1034F0004001C160F8BD206A0088C0F30800506038
:10350000206A801C2062E5E74006F3D54806F1D525
:10351000D168204621F04001D16084F83D3000F0B0
:10352000DCF9F8BD8F54000870B5040004D094F89D
:103530003D00002510B106E0012070BD84F83C502C
:10354000204600F023F8242084F83D002068C1685C
:1035500021F40051C160204602F014F8206801698E
:1035600021F4904101612068416921F02A01416103
:103570002068C16841F40051C1602564202084F8AE
:103580003D0084F83E00002070BD000070B586B09C
:10359000002400940194029403942E4E03682E4953
:1035A000022003222D4DB34226D18B6943F4804380
:1035B0008B618B6903F4804304938B6943F00403AC
:1035C0008B618969039201F0040104910102CDE944
:1035D000001069462846FEF7F7FC2815CDE90004DF
:1035E000694628460294FEF7EFFC002205212520BB
:1035F000FEF784FE252028E0194EB34227D1CB697F
:1036000043F40033CB61CB6903F4003304938B693B
:1036100043F004038B618969039201F00401049172
:103620000421CDE9001069462846FEF7CDFC0820AC
:10363000CDE90004694628460294FEF7C5FC002245
:1036400005212620FEF75AFE2620FEF749FE06B089
:1036500070BD000000380140001002400008014029
:103660000044004090F83E30202B0ED159B152B1A9
:1036700090F83C30012B08D0012380F83C30002327
:10368000036301F0DBBF0120704702207047000098
:103690002DE9F0410446006856494FF00108884280
:1036A00010D1554800780D2807D00A2819D0544A5F
:1036B000524B11685854491C116001224E4951481F
:1036C000FFF7D0FF50492068884274D14A4C002748
:1036D000661CE0684D4D022814D230B101280BD091
:1036E0007EE04B48C0F80080E7E73078552877D176
:1036F0002870C4F80C8073E03078AA281CD1687058
:10370000022017E003D13078A870032012E00328CC
:1037100066D3A978CA1E824201D9317808E00DD15A
:1037200091B23A48FEF754F83178884204D1E06803
:103730002954401CE06053E0E76051E08A1E824259
:1037400003D131780D2911D005E0491E814203D102
:1037500031780A290AD0E760AE78E068A046864250
:103760003ED1254B00219B1D2A4A11E02954401CC3
:10377000E060F1E75FF0000000EB41042C442479A5
:103780001C54401C0228F7DB188822F81100491C41
:103790008E42EFDCE8780B2804D00C280CD00D28E2
:1037A00014D01BE0144811881030018051884180EA
:1037B0009188818012E01BE0174910880880174922
:1037C0005088088016499088088007E00A481188C8
:1037D000083001805188418000F076FBC8F80C70F9
:1037E000BDE8F04104490122491C0E48FFF73ABFE9
:1037F000BDE8F08100380140200100201E3100208A
:10380000BC0000200C08002000440040F6330020DB
:10381000C0000020F831002010010020120100201B
:1038200014010020500800202DE9F843044690F8C8
:103830003D001F4616460D4620284CD1C5B1BEB1ED
:1038400094F83C00012846D0012084F83C004FF059
:103850000008C4F84080212084F83D00FEF7C2FC37
:10386000A6848146E684A068B0F5805F03D004E0BA
:103870000120BDE8F883206928B12E465FF00005DD
:1038800084F83C800EE00026FAE78021204601F013
:10389000F0FEA0B9AEB116F8010B21684860E08CCB
:1038A000401EE084E08C4B464FF000020097002859
:1038B000EBD14FF04001204601F0DBFE30B1032098
:1038C000D7E735F8020BC0F30800E6E7202084F8BC
:1038D0003D000020CDE70220CBE77047FEE7000067
:1038E0000C4800B50022C0F8A0210B490B6823F05A
:1038F000F0030B600B6843F030030B60C0F8A421A9
:1039000000F00CF80121C0F8A01100F007F8C0F891
:10391000A02100BD00802142040C0140704700003E
:1039200003480121C0F8A011C0F8A411704700009D
:10393000008021420C4800B50022C0F8A0210B49AC
:103940000B6823F0F0030B600B6843F030030B604F
:103950000121C0F8A411FFF7E1FFC0F8A011FFF7A3
:10396000DDFFC0F8A02100BD00802142040C014011
:1039700070B5024614480024016821F0F00101608E
:10398000016841F08001016010492046234601256D
:10399000C1F8A031FFF7C2FFC1F8A0516406D1F809
:1039A0002461240E0EB1641CE4B2FFF7B7FF401C83
:1039B000C0B20828ECD31AB1FFF792FF204670BDC1
:1039C000FFF7B8FFFAE70000040C01400080214235
:1039D00030B510490A6822F0F0020A600A6842F025
:1039E00030020A600C490023C1F8A0311A460124B4
:1039F000C509C1F8A4514006000EC1F8A041FFF767
:103A00008DFFC1F8A031FFF789FF521CD2B2082AFE
:103A1000EED330BD040C0140008021420C4800B5BB
:103A2000016821F0F0010160016841F0300101609E
:103A300008480121C0F8A411C0F8A011FFF76EFFDB
:103A40000021C0F8A411FFF769FFC0F8A01100BD64
:103A5000040C0140008021420D4800B5016821F0AE
:103A6000F0010160016841F0300101600948002166
:103A7000C0F8A011C0F8A411FFF750FF0121C0F851
:103A8000A011C0F8A4115DF804EBFFF747BF0000D8
:103A9000040C014000802142134800B50268002157
:103AA00022F0F0020260026842F0800202600F48D9
:103AB0000122C0F8A421FFF731FFC0F8A021FFF7D1
:103AC0002DFF07E0491CC9B2FA2903D9FFF7C4FF4B
:103AD000012000BDD0F82421002AF3D10021C0F834
:103AE000A011084600BD0000040C014000802142E6
:103AF0002DE9FC47DFF8AC904FF48078414648460A
:103B0000FEF75EFB01260327274C022538B90A2061
:103B100006F0A9F941464846FEF752FB50B1256030
:103B2000DFF888904FF4005841464846FEF748FBBE
:103B3000B0B11DE06420266006F095F94146484684
:103B4000FEF73EFB0128EBD119A12820CDE90001A9
:103B50001B4B1CA220A1042004F0E8F82760DFE73B
:103B60000A2006F080F941464846FEF729FB10B1CD
:103B70006560BDE8FC876420666006F074F9414624
:103B80004846FEF71DFB0128F3D114A13B20CDE9E7
:103B900000010B4B0BA210A1042004F0C7F86760D2
:103BA000E7E7000000080140DC00002000100140B1
:103BB0004B4559315F444F574E55500D0A00000098
:103BC000E4B900082E2E5C4253505C6273705F6B48
:103BD00065792E63000000004B4559004B45593272
:103BE0005F444F574E55500D0A0000002DE9FE4F1F
:103BF0000C460188AB4F4942DFF8B48239804188D6
:103C000079808188DFF8A0A24942B980C088DFF8B6
:103C10009C92F880002608F1100500BF37F91600C5
:103C2000FCF748FE00224B46FCF7B4FE0CD258F8D5
:103C30002600FCF73FFE00225346FCF7C3FE03D2EA
:103C400055F82600401C16E037F91600FCF732FE46
:103C500000225346FCF7B6FE0CD258F82600FCF7BB
:103C600029FE00224B46FCF795FE03D255F82600AC
:103C7000401E00E0002045F82600761C042ECDDB17
:103C80008849002620394746D1E90281894685487E
:103C900030F916508648103050F82600C0EB00402E
:103CA000291857F82600081AFCF704FE42464B462E
:103CB000FCF76CFD7E4ADFF8FCA1343202EBC60251
:103CC000DFF8F4B1C2E9000147F82650784D761CC0
:103CD0005435042EDBDBA5F1200CDCE9009282F0E8
:103CE0000043CCF804300293DCE90201CDE9000185
:103CF000DCE9046181F00041CCF81410DCE906082D
:103D00000F4632463B464146FCF727FC4FF0FF3852
:103D10004246FCF7AAFDC5E900014A46304639464D
:103D2000029BFCF7BBFC4246FCF79FFDC5E9020184
:103D30005C48012120380068FCF703FCFCF717FE03
:103D400080468946DDE9000132463B46FCF7A6FC89
:103D500042464B46FCF71AFDC5E90401B4F90400DC
:103D6000FCF7A8FD00225346FCF710FD06F026FEE6
:103D7000D5E90223FCF798FC06460F46B4F9040087
:103D8000FCF798FD00225346FCF700FD03F0E8F92C
:103D9000D5E90023FCF788FC32463B46FCF77EFC65
:103DA00000225346FCF780FCFCF7C2FD2188084442
:103DB0002080B4F90400FCF77DFD00225346FCF797
:103DC000E5FC03F0CDF9D5E90223FCF76DFC0646CE
:103DD0000F46B4F90400FCF76DFD00225346FCF7D2
:103DE000D5FC06F0EBFDD5E90023FCF75DFC32467F
:103DF0003B46FCF7B2FB00225346FCF755FCFCF7B0
:103E000097FD6188002208446080D5E9040153468B
:103E1000FCF74AFCFCF78CFDA188084400B2A080A6
:103E2000FCF748FD5E465A46244BFCF7CBFDB4F93F
:103E3000040006D2FCF73EFD3246214BFCF72EFC77
:103E40000EE0FCF737FD32461E4BFCF7A3FD0AD20D
:103E5000B4F90400FCF72EFD3246194BFCF77DFB4C
:103E6000FCF766FDA080D5E90001002256465346C6
:103E7000FCF71AFCFCF75CFDE080D5E902010022AA
:103E80003346FCF711FCFCF753FD2081D5E9040112
:103E900000223346FCF708FCFCF74AFD6081BDE8D0
:103EA000FE8F0000080100204099C940C099C9C098
:103EB0005C31002000408F40386744692F8BA84058
:103EC0002F8BB8402F8BA8C02DE9F0410746B0F9E1
:103ED0000000FCF7E1FCDFF860804146FCF7F3FAF4
:103EE000FCF745FD154C05460E46C4E90401B7F93B
:103EF0000200FCF7D1FC4146FCF7E5FAFCF737FD80
:103F0000C4E9060102460B464FF0C0400C49FCF7DD
:103F10003DFCFCF76FFD20600A4800212A46018025
:103F20004180818033464FF000500749FCF72EFC5A
:103F3000C4E90201BDE8F08100007A44E8000020F5
:103F40001058C93F503100205F8DB5402DE9F84F22
:103F500005460C46B0F90000FCF79EFC3B4E31468E
:103F6000FCF7B1FA8046B5F90200FCF795FC314642
:103F7000FCF7A9FA0746B5F90400FCF78DFC3146B9
:103F8000FCF7A1FA324D01462868FCF76AFA83462D
:103F90005E4639464046FCF75EFA31460090FCF733
:103FA0005AFA2C4E8246394630604046FCF701FAF8
:103FB00007465946FCF7FDF9814670605946384678
:103FC000FCF749FA0746B06059460098FCF7F1F94A
:103FD0008046F0605046FCF7CAFCD5E90223FCF7A6
:103FE00063FB1D4E00223346FCF7D0FBFCF7A0FC20
:103FF00020804846FCF7BBFCD5E90223FCF754FBC4
:1040000000223346FCF7C2FBFCF792FC6080384686
:10401000FCF7ADFCD5E90223FCF746FB0022334652
:10402000FCF7B4FBFCF784FCA0804046FCF79FFC47
:10403000D5E90223FCF738FB00223346FCF7A6FB48
:10404000FCF776FCE080BDE8F88F000000007A44C1
:10405000E80000207C310020000049401CB501220E
:1040600011030948FEF7B9F8012204210748FEF7B9
:10407000B4F807A11D20CDE900010A4B0AA20FA147
:10408000032003F053FE1CBD00100140001401404A
:104090004C454420496E697420537563636573739E
:1040A0000D0A0000EDB900082E2E5C4253505C62F0
:1040B00073705F6C65642E63000000004C45440023
:1040C0001CB503F001FEFF21002004F08BF807214E
:1040D000012004F087F80721022004F083F807216B
:1040E000032004F07FF8A721042004F07BF8A72127
:1040F000052004F077F8032004F01AF804F0D0F853
:1041000005A13220CDE90001084B09A20DA1032031
:1041100003F00CFE1CBD00004C4F4720496E697433
:1041200020537563636573730D0A0000F6B90008C8
:104130002E2E5C4253505C6273705F6C6F672E630F
:10414000000000004C4F470070B5184D041E0BDDF9
:10415000012211462846FEF740F800220221284697
:10416000FEF73BF8A0B20EE04FF000024FF0010165
:10417000284611DAFEF731F8012202212846FEF71F
:104180002CF8604280B24FF47A71884200D9084618
:1041900007490968486370BDFEF71FF80022022135
:1041A0002846FEF71AF80020F2E700000010014050
:1041B000C407002070B5184D041E0BDD0022042139
:1041C0002846FEF70AF8012208212846FEF705F8DE
:1041D000A0B20CE014DA012204212846FDF7FDFF0D
:1041E000002208212846FDF7F8FF604280B24FF414
:1041F0007A71884200D9084608490968886370BD09
:10420000002204212846FDF7E8FF00220821284665
:10421000FDF7E3FF0020EFE700100140C407002096
:1042200070B5184D041E0BDD012210212846FDF744
:10423000D4FF002220212846FDF7CFFFA0B20EE0D8
:104240004FF000024FF01001284611DAFDF7C5FFCC
:10425000012220212846FDF7C0FF604280B24FF4C2
:104260007A71884200D9084607490968C86370BD59
:10427000FDF7B3FF002220212846FDF7AEFF002006
:10428000F2E7000000100140C407002070B5194D8E
:10429000041E4FF480414FF400460ADD00222846F8
:1042A000FDF79BFF012231462846FDF796FFA0B29D
:1042B0000BE013DA01222846FDF78FFF002231467A
:1042C0002846FDF78AFF604280B24FF47A71884237
:1042D00000D9084608490968086470BD00222846CC
:1042E000FDF77BFF002231462846FDF776FF0020D0
:1042F000F0E70000000C0140C40700200EB50128C3
:1043000011D0022814D0032817D004281AD010A1E5
:10431000A122CDE900210290134B14A218A1012083
:1043200003F004FD0EBD0846BDE80E40FFF70CBFCC
:104330000846BDE80E40FFF73DBF0846BDE80E4009
:10434000FFF76EBF0846BDE80E40FFF79FBF0000B5
:104350004D6F746F725F4E756D5B25645D204552C5
:10436000524F520D0A00000013BA00082E2E5C4274
:1043700053505C6273705F6D6F746F722E630000D8
:104380004D4F544F520000002DE9F04F8DB00446C0
:104390000CA90AA8CDE900010BAB06AA04A902A842
:1043A00003F0C0F8BDF808002080BDF80A00608066
:1043B000BDF80C00A080BDF81000E080BDF8120030
:1043C0002081BDF814006081BDF82800C0057DD5AE
:1043D0000698FCF761FA6FF01D052946FCF7B1F865
:1043E00000900798FCF758FA2946FCF7AAF880468F
:1043F0000898FCF751FA2946FCF7A3F88346099878
:10440000FCF74AFA2946FCF79CF8824601210098FD
:10441000FCF797F881465946FCF723F805464FF01C
:1044200040414046FCF71DF807465146FCF719F895
:104430002946FBF7BEFFFCF79AFA02F083FA4FF029
:104440006632494BFCF730F9FCF7D4FA474D0121AD
:1044500028605846FCF775F859460190FCF701F8BA
:10446000064638464146FBF7FCFF3146FBF7F3FFB3
:104470004FF07E51FBF79DFFFCF779FA07460E4699
:1044800048464146FBF7EDFF814651460198FBF750
:10449000E8FF4946FBF78DFFFCF769FA3A463346D9
:1044A00002F098FC4FF066322F4BFCF7FDF8FCF75A
:1044B000A1FA514668600846FBF7D3FF814659468A
:1044C0000846FBF7CEFF0746414600E048E00846B5
:1044D000FBF7C7FF009906460846FBF7C2FF3146C7
:1044E000FBF767FF3946FBF7B6FF4946FBF7B3FF1B
:1044F000FCF73DFA07460E4651460098FBF7B1FF20
:10450000814659464046FBF7ACFF4946FBF751FF51
:104510000121FCF716F8FCF72AFA3A46334602F076
:1045200059FC4FF06632104BFCF7BEF8FCF762FA0C
:104530000F4F0646A86039462868FBF792FFFCF744
:10454000CAF9A08139466868FBF78BFFFCF7C3F90D
:10455000E08139463046FBF784FFFCF7BCF9208246
:104560000DB0BDE8F08F000066A64C40C4000020EE
:104570000000C8427CB504F0FBFE002824D178205E
:1045800005F0EAFB10F0FF0F03D03BA14FF40A70D7
:1045900012E0782004F01EFE10F0FF0F03D03CA1C3
:1045A0004FF40C7008E0642005F096FB10F0FF0F4C
:1045B0000CD03EA14FF40E70CDE90001424B43A256
:1045C00047A1012003F0B2FB00207CBD02F0A0FF58
:1045D00010F0FF0F03D043A14FF41070ECE74B48ED
:1045E000044604F041FC0546E01C04F03DFC45EAAD
:1045F000C005A01D04F038FC45EA801080B203F02D
:1046000047F910F0FF0F03D041A14FF41270D3E728
:1046100040F2731002F054FE10F0FF0F03D043A1DC
:1046200040F25220C8E7642003F09AF810F0FF0F20
:1046300003D045A140F25A20BEE705F02FFF18B184
:1046400048A140F26220B7E7012005F06BFA10F0B4
:10465000FF0F03D049A140F26A20ADE74EA14FF40D
:104660001C70CDE90001184B18A21DA1042003F015
:104670005DFB01207CBD00006D70755F7365745F2C
:1046800073656E736F72206572726F720D0A00002F
:104690006D70755F636F6E6669677572655F666979
:1046A000666F206572726F720D0A00006D70755F23
:1046B0007365745F73616D706C655F7261746520A2
:1046C0006572726F720D0A00D3B900082E2E5C421B
:1046D00053505C6273705F696D752E63000000005B
:1046E000494D5500646D705F6C6F61645F6D6F74F0
:1046F000696F6E5F6472697665725F6669726D7705
:10470000617265206572726F720D0A00D000002020
:10471000646D705F7365745F6F7269656E746174E8
:10472000696F6E206572726F720D0A00646D705F42
:10473000656E61626C655F66656174757265206542
:1047400072726F720D0A0000646D705F7365745F42
:104750006669666F5F72617465206572726F720D53
:104760000A00000072756E5F73656C665F74657336
:1047700074206572726F720D0A0000006D70755FB3
:104780007365745F646D705F7374617465206572C6
:10479000726F720D0A0000004D5055363035305F93
:1047A000444D5020496E697420537563636573737B
:1047B0000D0A00001FB5FFF7B3F880216B2000F051
:1047C00009F9642005F04FFB00216B2000F002F98D
:1047D000032000F0E2F8002000F0C2F800213820A9
:1047E00000F0F8F800216A2000F0F4F8FF212320FF
:1047F00000F0F0F88021372000F0ECF8752103ABD1
:104800000122682000F076F89DF80C00682809D095
:10481000552219A1CDE9002102901F4B1FA224A10E
:1048200001201AE001216B2000F0D4F800216C2057
:1048300000F0D0F8322000F0B5F8642005F013FB4A
:10484000FFF798FE60B19DF80C201AA14C208DE86E
:104850000700114B11A216A1032003F067FA1FBD38
:104860001CA15020CDE900010B4B0CA210A101208E
:1048700003F05CFA1FBD00004D5055363035302036
:10488000496E6974204661696C65642C2049443D19
:10489000307825780D0A0000C6B900082E2E5C423B
:1048A00053505C6273705F696D752E630000000089
:1048B000494D55004D50553630353020496E69749C
:1048C00020537563636573732C2049443D3078250C
:1048D000780D0A004D50553630353020496E6974D8
:1048E000204661696C65643A20444D5020466169F8
:1048F0006C6564002DE9F0411D4614460F460646DE
:10490000FFF78CF87006000EFFF762F8FFF7C4F8A7
:1049100020B1FFF7A1F80120BDE8F0813846FFF78C
:1049200057F8FFF7B9F8FFF779F8012000EB4600D8
:10493000C0B2FFF74DF8FFF7AFF809E0012C0DD03A
:104940005FF00100FFF714F8641E05F8010BE4B2F4
:10495000002CF3D1FFF780F80020DDE70020F1E71D
:10496000C006010E1C2000F035B8BC2801D301217F
:1049700010E0622801D302210CE02A2801D3032190
:1049800008E0142801D3042104E00A2801D30521FA
:1049900000E006211A2000F01DB8C006010E1B2001
:1049A00000F018B810B504464FF47A70844201D96B
:1049B000044602E00A2C00D20A24B0FBF4F0401EA8
:1049C000C1B2192000F006F8C4F34700BDE810405A
:1049D000FFF7CBBF13B5014601AB0122682000F001
:1049E00001F81CBD2DE9F0411E4615460F46044650
:1049F000FFF714F86006000EFEF7EAFFFFF74CF829
:104A000060B93846FEF7E4FFFFF746F800240CE0F3
:104A1000305DFEF7DDFFFFF73FF820B1FFF71CF830
:104A20000120BDE8F081641CE4B2AC42F0D3FFF792
:104A300013F80020F5E700003EB50024114800946B
:104A4000019402940E498460016004730475012589
:104A500005614FF460214460C161FDF731F808B190
:104A6000FCF7AAFF1020CDE900056946029405482D
:104A7000FCF7A4FF002801D0FCF79EFF3EBD00001C
:104A800000240140440600203EB500241148009453
:104A9000019402940E498460016004730475012539
:104AA00005614FF460214460C161FDF709F808B168
:104AB000FCF782FF0820CDE900056946029405480D
:104AC000FCF77CFF002801D0FCF776FF3EBD00001C
:104AD000002801407406002010B5C0B01C223249E5
:104AE0006846FBF7D0FB0021684605F0C8F92F4C5B
:104AF0002D491C2220601C3107A8FBF7C4FB0021B4
:104B000007A805F0BCF9284960601C2238310EA8BE
:104B1000FBF7B9FB00210EA805F0B1F92249A0600E
:104B20001C22543115A8FBF7AEFB002115A805F097
:104B3000A6F91D49E0601C2270311CA8FBF7A3FBFD
:104B400000211CA805F09BF9174920611C228C311B
:104B500023A8FBF798FB002123A805F090F9124940
:104B600060611C22A8312AA8FBF78DFB00212AA82E
:104B700005F085F90C49A0611C22C43131A8FBF76E
:104B800082FB002131A805F07AF90749E0611C2277
:104B9000E03138A8FBF777FB002138A805F06FF962
:104BA000206240B010BD000064B800080000002082
:104BB0002DE9F04385B000253C480095019502950C
:104BC0000395816941F010018161816901F0100153
:104BD0000491816941F020018161816901F0200126
:104BE0000491816941F004018161816901F004014E
:104BF0000491816941F00801816180692C4F00F0C6
:104C00000800049000223F213846FDF7E6FADFF85D
:104C1000A49001224FF441714846FDF7DEFA0022CC
:104C20004FF440414846FDF7D8FA012211033846B7
:104C3000FDF7D3FADFF88080012204214046FDF71A
:104C4000CCFA7814CDE9000501246946029438466F
:104C5000FDF7BAF941F23F0003268DE8710069467D
:104C60003846FDF7B1F94CF204008DE87100694651
:104C70004846FDF7A9F92002CDE9000569460294EE
:104C80000E48FDF7A1F904208DE871006946404601
:104C9000FDF79AF93002CDE90004CDE902466946F4
:104CA0004846FDF791F905B0BDE8F08300100240D9
:104CB00000100140000C01400014014000080140B8
:104CC00010B58CB024216846FBF7F6FA002415488D
:104CD00009944FF080410A94C0E900144EF6602117
:104CE000C0E90241046184610320CDE90004012090
:104CF000CDE902040494CDE90540079469460948CA
:104D00000894FDF7F6FF08B1FCF756FE099409A9CF
:104D100004480A94FDF7CCFE002801D0FCF74CFEB5
:104D20000CB010BDA406002010B58CB0242168463C
:104D3000FBF7C2FA00241648099414490A94C0E902
:104D400000144EF66021C0E9024104618461032031
:104D5000CDE900040120CDE902040494CDE9054029
:104D6000079469460A480894FDF7C3FF08B1FCF7A9
:104D700023FE099409A906480A94FDF799FE002824
:104D800001D0FCF719FE0CB010BD0000000400407B
:104D9000EC06002010B58CB024216846FBF78CFA95
:104DA00000241648099414490A94C0E900144EF6E8
:104DB0006021C0E90241046184610320CDE900045F
:104DC0000120CDE902040494CDE905400794694629
:104DD0000A480894FDF78DFF08B1FCF7EDFD099432
:104DE00009A906480A94FDF763FE002801D0FCF7E4
:104DF000E3FD0CB010BD00000008004034070020A7
:104E000010B58CB024216846FBF756FA00241648EA
:104E1000099414490A94C0E900144EF66021C0E9CF
:104E20000241046184610320CDE900040120CDE941
:104E300002040494CDE90540079469460A480894A1
:104E4000FDF757FF08B1FCF7B7FD099409A906481B
:104E50000A94FDF72DFE002801D0FCF7ADFD0CB043
:104E600010BD0000000C00407C07002010B596B07B
:104E700000240F9410941194129413941C216846EA
:104E80001494FBF719FA202107A8FBF715FA344808
:104E9000324901604721C0E9011440F2E731C0E91D
:104EA000031444618461FDF741FE08B1FCF784FD01
:104EB0004FF480500F900FA92948FDF7AFFE08B1BD
:104EC000FCF77AFD2648FEF791F908B1FCF774FD6E
:104ED000139413A922481494FDF7EAFD08B1FCF7D6
:104EE0006BFD6020CDE900040294039404940594C2
:104EF000002269461A480694FEF715F908B1FCF736
:104F00005BFD042269461648FEF70DF908B1FCF76F
:104F100053FD082269461248FEF705F908B1FCF76F
:104F20004BFD0C2269460E48FEF7FDF808B1FCF770
:104F300043FD0794089409944FF400500A94CDE976
:104F40000B4007A906480E94FDF788FD08B1FCF751
:104F500033FD0348FEF7BEF816B010BD0034014023
:104F6000C40700200C4810B50A4901604FF4E13134
:104F70004160002181600C22C160C0E9041281619E
:104F8000C161FEF7D1FA002803D0BDE81040FCF75C
:104F900013BD10BD003801400C0800200C4810B5AE
:104FA0000A4901604FF4E1314160002181600C2227
:104FB000C160C0E904128161C161FEF7B5FA002841
:104FC00003D0BDE81040FCF7F7BC10BD0044004022
:104FD00050080020FEE700001CB500210F48FEF736
:104FE00035F904210D48FEF731F908210B48FEF789
:104FF0002DF90C210948FEF729F90022042108485F
:10500000FDF7EBF807A12220CDE900010B4B0CA224
:1050100010A1032002F08AFE1CBD0000C40700207E
:10502000000C01404D4F544F5220496E697420537B
:105030007563636573730D0A0000000008BA000809
:105040002E2E5C4253505C6273705F6D6F746F7292
:105050002E6300004D4F544F52000000FEE7000049
:105060002DE9F047054632488C1A00EB85004FF4D5
:105070007A7240F8044C2E48203000EB850050F83E
:10508000041C214440F8041C914202DC524291422B
:1050900001DA40F8042C274E50F8040CB6F902103F
:1050A0004843FBF7F9FBDFF890A05146FBF7D9F92D
:1050B00080461F48B6F90410103000EB850959F8F6
:1050C000040C201A4843FBF7E7FB5146FBF7C9F9EC
:1050D0000746B6F900006043FBF7DEFB5146FBF7DD
:1050E000C0F93946FBF765F94146FBF762F9064618
:1050F0001048801D00EB450535F9020CFBF7CCFB91
:105100003146FBF756F9FBF7E6FB00B225F8020C37
:105110004FF4FA6149F8044C884202DC4942884263
:1051200001DA25F8021C35F9020CBDE8F087000011
:10513000C8310020100100200AD7233C012004F0D0
:1051400092FEFBE710B5502080F31188BFF34F8F1C
:10515000BFF36F8F06F0F0F918B104494FF080509B
:105160000860002080F3118810BD000004ED00E00D
:1051700030B595B028216846FBF79EF814210AA89F
:10518000FBF79AF818210FA8FBF796F801210804FD
:10519000CDE900100025029502240491CDE90740D5
:1051A0004FF4E01009906846FDF7C6FA08B172B6F0
:1051B000FEE70AA90F2081E831004FF48060CDE9B5
:1051C0000D0502210AA8FDF7ABF908B172B6FEE79A
:1051D0004FF4004011900F940FA8FDF72BF9002811
:1051E00001D072B6FEE715B030BD70470148FDF73B
:1051F000BDBE000094080020F0B502681C4B1D4D98
:105200001D4E1E4F1E4C4FF0804C984209D0A042BC
:1052100007D0604505D0A84203D0B04201D0B842C3
:1052200004D122F0700E4A6842EA0E02984209D078
:10523000A04207D0604505D0A84203D0B04201D0BB
:10524000B84203D122F44075CA682A434D6922F05E
:1052500080022A4302608A68C2620A6882629842B7
:1052600001D0A04201D10969016301214161F0BD72
:10527000002C01400004004000080040000C0040E9
:105280000034014010B501F01F030121046A994068
:105290008C430462016A9A401143016210BD10B54B
:1052A000846842EA032224F47F440A432243826052
:1052B00010BD826822F070020A4342F0070181604B
:1052C00070470000F0B5026A22F001020262036A30
:1052D00042688469124E24F073050C682C4323F055
:1052E00002058B682B430D4DA84201D0B04205D179
:1052F00023F00807CB683B4323F00403A84201D006
:10530000B04205D14D6922F4407215438A692A439F
:1053100042608461496841630362F0BD002C014032
:1053200000340140F0B5026A22F010020262026A03
:10533000436884690D6824F4E64444EA05248D68D2
:1053400022F0200242EA05120F4D104EA84201D071
:10535000B04206D1CF6822F0800242EA071222F062
:105360004002A84201D0B04207D14D6923F4406306
:1053700043EA85038D6943EA850343608461496894
:1053800081630262F0BD0000002C01400034014046
:10539000F0B5026A22F480720262026A4368C4694C
:1053A00022F4007224F073050C68124E2C438D68B1
:1053B00042EA05220E4DA84201D0B04206D1CF6884
:1053C00022F4006242EA072222F48062A84201D05D
:1053D000B04207D14D6923F4405343EA05138D6968
:1053E00043EA05134360C4614968C1630262F0BDCA
:1053F000002C01400034014030B5026A22F4805292
:105400000262046A4268C3690D6823F4E64343EA12
:1054100005238D6824F4005444EA0534084DA8425D
:1054200002D0084DA84204D14D6922F4804242EADC
:1054300085124260C36149680164046230BD0000A6
:10544000002C01400034014010B5036A046A24F0C6
:1054500001040462846924F0F00444EA021423F095
:105460000A020A438461026210BD10B5036A23F088
:10547000100303628369046A23F4704343EA02322F
:1054800024F0A00343EA01118261016210BD10B54E
:10549000406A0021C185C184FDF73EFF10BD01684F
:1054A000CA6822F49072CA6001684A6922F0010257
:1054B0004A61016B012904D10168CA6822F0100217
:1054C000CA60202180F83E1000210163704708B5B2
:1054D00090F83E10222901D0022008BD82684FF4C6
:1054E00080539A4201D1016921B1816A9A421BD04D
:1054F0004AB10AE00268816A5268C2F308020A806F
:10550000816A891C08E0026972B10268526802F07F
:105510007F020A70816A491C8162C18D491E09049B
:10552000090CC18503D019E002685268F1E70168EF
:10553000CA6822F02002CA600168CA6822F4807238
:10554000CA6001684A6922F001024A61202180F89C
:105550003E10016B012903D0FEF79AF8002008BD28
:10556000002101630168CA6822F01002CA60016864
:105570000A68D20602D50A6849680091818DFDF754
:10558000CAFEEBE770B5044600680169E26821F4E1
:105590004051114301612169A068084361690843D2
:1055A0002168CA6841F20C639A430243CA602068CA
:1055B0004169A26921F44071114341611E4920688B
:1055C000884202D1FDF772F801E0FDF75FF800EBC9
:1055D000C00101EB0012606864218000B2FBF0F3AF
:1055E000B3FBF1F36FF018067343B2FBF0F5B2FBB7
:1055F000F0F605EB8305322303EB0515B5FBF1F55A
:10560000B6FBF1F605F0F00505EB0615B2FBF0F67A
:10561000B2FBF0F0B0FBF1F06FF01802504306EB74
:10562000800003EB0010B0FBF1F0216800F00F00E8
:105630002844886070BD0000003801408162828586
:10564000C28500210164222280F83E2080F83C10AF
:105650000168CA6842F48072CA6001684A6942F00F
:1056600001024A610068C16841F02001C160002068
:1056700070472DE9F041984617460E460446069DB0
:105680001DE0681C1BD02DB1FCF7ACFDA0EB0800A1
:10569000A84214D92068C16821F4D071C160206883
:1056A000416921F001014161202084F83D0084F826
:1056B0003E00002084F83C000320BDE8F081206813
:1056C000006836EA000004D00020B842D9D000209B
:1056D000F3E70120F9E700000148FDF71FBE0000D5
:1056E0000C0800200148FDF719BE000050080020FA
:1056F0001CB501220A490B48FDF7B4FF08490122F5
:10570000491C0948FDF7AEFF08A140F23910CDE968
:1057100000010C4B0CA211A1032002F007FB1CBDE1
:10572000200100200C080020500800205553415251
:105730005420496E697420537563636573730D0A51
:105740000000000024BA00082E2E5C4253505C6218
:1057500073705F75736172742E630000555341520C
:10576000540000002DE9F04781461646072000EB63
:105770004600C7B21D468846384603F02FFC044653
:105780001B4900200A5C2254401C0228FADBA77047
:10579000E5700021174D0CE038F81100288000203A
:1057A00000EB41032A5C2344401C1A710228F7DBFA
:1057B000491CB142F0D3042000EB46012046FCF71F
:1057C00007F8014604EB4600642301710D21417185
:1057D0000A2181713A4621464846FEF725F8002005
:1057E0002880204602F05EFE0120BDE8F087000020
:1057F00022BA000824010020FEE700001CB503F0D7
:105800007FFA05A12820CDE90001084B08A20DA1CF
:10581000032002F08BFA1CBD56494E20496E697474
:1058200020537563636573730D0A00002FBA000877
:105830002E2E5C4253505C6273705F76696E2E63ED
:105840000000000056494E000FB4054B10B503A9E7
:10585000044A029800F06CFC10BC5DF814FB0000D8
:105860008D8400088C0100200FB47CB50C0009ADBC
:1058700001D0611E00E00021CDE90001064B6A461F
:105880002946089800F054FC002C02D0009A002110
:1058900011707CBC5DF814FB376800087CB50C0007
:1058A0001D461646014601D0601E00E00020CDE9ED
:1058B0000010064B6A462946304600F039FC002CA1
:1058C00002D0009A002111707CBD000037680008EA
:1058D000490050EAC12018BF04204A0D18BF40F00B
:1058E000010040F2FF72B2EB515F08BF40F00200CE
:1058F000012808BF052070470907090E002804DBAE
:1059000000F1E02080F80014704700F00F0000F173
:10591000E02080F8141D704700487047980100206F
:105920002DE9F74F144694B00021C4E902111599EE
:10593000079121F00045C9498D4206DC1599C4E95B
:10594000000117B00020BDE8F08FC549DFF814A3AF
:10595000A9423CDD0799C44E0029C44FC44A159999
:10596000534619DDFAF79AFE554506D0C14AC24B97
:10597000FAF794FEC4E900010AE04FF0D352BE4B9F
:10598000FAF78CFE32463B46FAF788FEC4E900017E
:1059900017B00120BDE8F08FFAF7DFFD554506D0BE
:1059A000B44AB54BFAF7D9FDC4E900010AE04FF05B
:1059B000D352B14BFAF7D1FD32463B46FAF7CDFD53
:1059C000C4E9000117B04FF0FF30BDE8F08FAB49DC
:1059D000A942159978DB21F0004183468846A84A00
:1059E000A84BFAF761FE0022A74BFAF7B6FDFAF7CB
:1059F0009FFF0990FAF75EFF06460F469C4A534602
:105A0000FAF752FE43465A46FAF74BFE80468A465C
:105A1000984A994B30463946FAF746FE2A0D012539
:105A20000B9242465346FAF73CFE032DC4E90001AF
:105A300039D00B98C1F30A51401A05EB45111139C1
:105A4000814230DA9148C346784400EB0510CDF826
:105A50000CA00C90D0E9002330463946FAF724FE1A
:105A600002460B460491069058460399FAF716FE33
:105A700080468A4602460B4658460399FAF70EFEC0
:105A8000049B069AFAF70AFE83460C98039139465E
:105A9000D0E902233046FAF707FE5A46039BFAF78D
:105AA000FDFD6D1CBDE707980028A2BF099817B03F
:105AB000BDE8F08F616881F000416160099817B01E
:105AC0004042BDE8F08FFFE784461598C1F313010B
:105AD000C0F30A50A0F2F5304FEA601800F01F063C
